:10112C00D3EF9400EE9400401600000075080B7588
:0F113C0009BED509FDD508FAEF1F70E41E80E14A
:01114B002281
:10122B00D3EF9400EE9400400A000000EF1F70F023
:04123B001E80ED2202
:1011E20043BC807F0A7E0012112C53DEFC43DE0CCE
:0A11F20053BCDF53A8DF43DE2022C8
:10110B00E4FDFC53BCF0EF444042BCE5BC30E5FBD6
:10111B0053BCDF53BCBFAFBDEFADBEFCEDAE04FFA8
:01112B0022A1
:0D000E00E4F5C7F5C5F5C675C380F5C4223D
:10118B0075C78075F50C75C5038FC4EEF5C375C6B1
:0E119B005A75C6A57F0A7E0012112C02000EA6
:1010E90075C78075F50C75C5028FC4EEF5C3AF05DC
:1010F9008FC275C65A75C6A57F0A7E0012112C02C9
:02110900000ED6
:10114C0075C78075F50C75C5018FC4EEF5C375C6F2
:10115C005A75C6A57F0A7E0012112CAFC202000E72
:10116C00759418E4F593F5927591F075960EF595C6
:0F117C0075B2C2F5B175B48EF5B3F5CAF5C922D7
:1010C5003D3D3D3D3D3D3D3D3D3D20636F646520DE
:1010D5007374617274203D3D3D3D3D3D3D3D3D3D5B
:0410E500200D0A00D0
:1010120043BA8012116C1211FC1211E21212151253
:1010220011A9121253121276121266120F92D2AF35
:101032001210717BFF7A1079C5120109120BCE8052
:01104200FBB2
:100F920043BA8090FEB6E0F090FEEDE4F090FEEAF7
:100FA2007470F090FEED7401F090FEF27404F0A300
:100FB2007451F090FEF0E4F0A37431F090FEB5E0CD
:100FC2004410F090FEFD7480F090FEE0E04401F0E9
:010FD20022FC
:05000600D288D2A822FF
:10125300438E805389F0758ACD758CD4C28DD28C20
:03126300D2A922EB
:0A129800538EBF53890F43891022C3
:1012660053D1FDE4F5D575D4DC43D10843AF202234
:1011FC0053A23F759850438E01438E0475D7E87502
:09120C00D6FF438E1075A81022D4
:1012150075841043844043D12075D3E875D2FF43CC
:06122500D18043AF10224E
:0C086100410108004101090041010A00AA
:1011A900E4900000F0900081F0900101F0F0A3F0CC
:0D11B900A3F0A3F0A3F0C284900107F02280
:03009300020DF863
:100DF800C0E0C083C082C0D075D000C007E5843091
:100E0800E12A5384FD900101E0601AA3E0FF04F099
:100E180074012FF582E43400F583E0F58590010133
:100E2800E014F08007900102E4F0C284E58430E029
:100E3800335384FE900000E07021900105E0D394C4
:100E4800804002E4F0900105E02481F582E434005A
:100E5800F583E585F0900105E004F0900103E4F0E6
:0F0E6800A37432F0D007D0D0D082D083D0E03244
:03000B00020FD30E
:100FD300C0E0C083C082C0D0900103E07002A3E0F0
:100FE3006024900104E024FFF0900103E034FFF05B
:100FF300E07002A3E0700F900105E0D39400400677
:0F1003009000007401F0D0D0D082D083D0E032C2
:030023000211C601
:1011C600C0E0C083C082309907C299900108E4F05C
:0C11D600309802C298D082D083D0E03262
:0B1282008F99900108E070FA04F02240
:101071007F107E0012114CEFB4FF1C9002487403E4
:10108100F0A37401F0A37407F0E4A3F0A37402F0D9
:0A109100A37450F0120F3C020D771B
:100F3C00E4FFFE12118B900248E0FDE4FFFE12105C
:100F4C00E9900249E0FD7F017E001210E990024A0F
:100F5C00E0FD7F027E001210E990024BE0FD7F0362
:100F6C007E001210E990024CE0FD7F047E0012100E
:100F7C00E990024DE0FD7F057E001210E97D587F5F
:060F8C00107E000210E9D6
:100D7700E4FFFE12114C900248EFF0E075F0B8A4C2
:100D8700FF90FEF9E5F0F0A3EFF07F017E0012116E
:100D97004C900249EFF01212A27F027E0012114C12
:100DA70090024AEFF0E0FE540190023CF0EEC313CC
:100DB7005401A3F090024AE01313540190023EF04D
:100DC7007F037E0012114C90024BEFF090023FF030
:100DD7007F047E0012114C90024CEFF0900240F01D
:100DE7007F057E0012114C90024DEFF090010EF03E
:010DF70022D9
:10086D0060FC011103D503FA04200446046D0495C0
:10087D0004BE04E70510053A0565059005BB05E7BF
:10088D000613063F066C069906C606F30720074DAC
:10089D00077A07A707D40800082D0859088508B15D
:1008AD0008DC09070931095B098409AD09D609FD81
:1008BD000A240A4B0A710A960ABB0ADE0B020B24A4
:1008CD000B460B670B870BA70BC60BE40C020C1E1C
:1008DD000C3A0C560C700C8A0CA40CBC0CD40CEC01
:1008ED000D020D190D2E0D430D570D6B0D7E0D9037
:1008FD000DA20DB40DC50DD50DE50DF50E040E12A1
:10090D000E200E2E0E3B0E480E550E610E6D0E78FE
:10091D000E830E8D0E970EA10EAB0EB40EBD0EC630
:10092D000ECF0ED70EDF0EE70EEF0EF60EFD0F04F7
:10093D000F0B0F110F170F1D0F230F290F2F0F3532
:10094D000F3A0F3F0F440F490F4E0F530F580F5CC7
:10095D000F600F650F690F6D0F710F740F780F7C9E
:0E0CEC00900217EBF0A3EAF0A3E9F0A3EDF0FD
:100CFA00E490021EF0A3F090021DF090021AE01494
:100D0A00FF90021DE0FEC39F505A900217E0FBA31A
:100D1A00E0FAA3E0F975F002EEA4F58285F08312F9
:100D2A000567FF90021BE0FCA3E0FDC39FEC95F072
:100D3A00402AA3E02401FFE433FEEF25E0FFEE336F
:100D4A00FE8F828E83120567FFC3ED9FEC95F050EC
:100D5A000B90021DE0FFA3E4F0A3EFF090021DE068
:0C0D6A0004F0809790021EE0FEA3E0FF62
:010D7600225A
:050EDB00900213EFF08E
:100EE000E4900215F0A3F0900214F0900213E0FFDA
:100EF00012110B900216E02FF0900215E03EF090D8
:100F00000214E004F0E0C3940A40E0900215E0FE11
:100F1000A3E0FF7C007D0A120512900215EEF0A3FB
:100F2000EFF07B017A017911900215E0FFA3E090C8
:0C0F3000021BCFF0A3EFF07D7E020CEC62
:0C127600E4900239F0D2C3D2C2D2C122EF
:03000300021043A5
:10104300C0E0C083C082C0D075D000C00690023A11
:10105300E0FEA3E0F58BEEF58D9002397401F0D23A
:0E1063008ED2ABD006D0D0D082D083D0E03277
:03001B0002109B35
:10109B00C0E0C083C082C0D0900239E0B4010CE440
:1010AB00F0C2C3758BF7758DFF8006D2C3C28EC29B
:0A10BB00ABD0D0D082D083D0E03259
:10123F00EF75F04BA42490FEE5F034E290023AF003
:04124F00A3CEF02218
:0A12A200EFB40103C2A322D2A3227D
:0A096D0042024E000042025000005A
:03009B000200263A
:06002600C0E0C083C082AF
:10002C0090010FE0702690024FE004F070069002F1
:10003C004EE004F090024EE07004A3E06464700C97
:10004C0090010F04F090024EE4F0A3F0900107E051
:10005C007025900251E004F07006900250E004F01C
:10006C00900250E07004A3E06464700B900250F0B6
:07007C00A3F090010704F05E
:07008300D082D083D0E032EF
:0B128D0067657420686572650D0A003B
:100BCE00900000E064016003020C5FF07B017A008C
:100BDE007981900105E024FEFD120E7790020DEE54
:100BEE00F0A3EFF0900105E0FD247FF582E43400E0
:100BFE00F583E0FE74802DF582E43400F583E0FD8C
:100C0E00EDFF90020FEEF0A3EFF07BFF7A12798DDD
:100C1E00120109E4900105F090020FE0FEA3E0FF3F
:100C2E0090020DE0B5062AA3E0B50725900081E0FD
:100C3E00B41B1EA3E024FC600F24FE600E24F6609D
:100C4E000D240D700C020978020749020B381206AA
:010C5E002471
:010C5F002272
:100978009002447403F0900085A3E025E0900243C0
:10098800F0900083E0FEA3E0FDEDFF900246EEF05C
:10099800A3EFF0900001741BF0A37403F0900243DE
:1009A800E0900003F0900211EEF0A3EFF090024304
:1009B800E0C313FF900247E02FFF900246E03400A7
:1009C800FE900211E0FCA3E0FDC39FEC9E400302F1
:1009D8000A6BE4900242F0900241F0EC7041ED1491
:1009E800601D146030240270367F04120EDB900202
:1009F80042EFF07F05120EDB900241EFF080207F7E
:100A080007120EDB900241EFF07F06120EDB900218
:100A180042EFF0800A9002417441F0A37419F090FB
:100A28000241E0FF900244E0FE04F074012EF582DA
:100A3800E43400F583EFF0900242E0FF900244E0D6
:100A4800FE04F074012EF582E43400F583EFF09093
:100A58000212E004F060030209B5900211E004F00C
:0F0A68000209B5900243E02403FD7F03020A77E1
:100749009002447403F0900085A3E025E0900243F1
:10075900F0900083E0FEA3E0FDEDFF900246EEF08D
:10076900A3EFF0900001741BF0A37404F09002430E
:10077900E0900003F0AB07AA06900243E0C313FF21
:10078900900247E02FFF900246E03400FEC3EB9F42
:10079900EA9E4003020855E4900242F0900241F0BB
:1007A900EA7071EB14602514602D14604614604DD5
:1007B9001460542405705D90FEF9E0FEA3E0FF7C0F
:1007C900007DB8120512900242EF8008A2A3B3E49B
:1007D90033900242F0803890023DE025E0FF90021C
:1007E9003CE04FFF90023EE025E025E04F900242B9
:1007F900F0801C90023FE0900242F080129002408B
:10080900E0900242F0800890010EE0900242F0E48C
:10081900900241F0900241E0FF900244E0FE04F0B2
:1008290074012EF582E43400F583EFF0900242E082
:10083900FF900244E0FE04F074012EF582E43400D6
:10084900F583EFF00BBB00010A020782900243E037
:080859002403FD7F04020A776D
:100B3800900084E014602A146039146057146062CD
:100B480014606D24057075900086E0FD75F0B8A4FA
:100B5800FF90FEF9E5F0F0A3EFF0900248EDF08089
:100B68005B900086E0FF1212A2900086E090024996
:100B7800F08049900086E0FE540190023CF0EE546B
:100B880002A3F0900086E0540490023EF090024ADE
:100B9800EEF08028900086E090023FF090024BF043
:100BA800801A900086E0900240F090024CF0800C91
:100BB800900086E090010EF090024DF07D087F06CF
:060BC800120A77020F3C47
:100624009002457407F0900087E0900243F0900038
:1006340083E0FEA3E0FDEDFF900246EEF0A3EFF0B1
:10064400900211EEF0A3EFF0900243E0C313FF9089
:100654000247E02FFF900246E03400FE900211E0D2
:10066400FCA3E0FDC39FEC9E400302073F900245BC
:10067400E02481F582E43400F583E0900241F090B7
:100684000245E02482F582E43400F583E0900242DE
:10069400F0EC6003020724ED14602A14603914603E
:1006A4005714606214606D24057075900242E0FD79
:1006B40075F0B8A4FF90FEF9E5F0F0A3EFF0900216
:1006C40048EDF0805B900242E0FF1212A2900242D9
:1006D400E0900249F08049900242E0FE5401900209
:1006E4003CF0EE5402A3F0900242E0540490023E27
:1006F400F090024AEEF08028900242E090023FF02F
:1007040090024BF0801A900242E0900240F0900276
:100714004CF0800C900242E090010EF090024DF0FB
:10072400900245E02402F0900212E004F06003021B
:10073400064C900211E004F002064C7D087F101272
:050744000A77020F3CE2
:050E7700900216EDF0F1
:100E7C0074FFA3F0A3F01204F9FF900217E0F0A3A3
:100E8C00E06FF0E4FD900217E0FEA3E0FF30E01904
:100E9C00EEC313FEEF13FFEE64A0FEEF6401FF90B0
:100EAC000217EEF0A3EFF0800B900217E0C313F0E3
:100EBC00A3E013F00DEDB408CC740129F9E43AFA6F
:0E0ECC00900216E014F070AEA3E0FEA3E0FF6B
:010EDA0022F5
:050A7700900213EDF0F8
:100A7C00EF24FC600F24FE604F24F66064240D60AC
:100A8C0003020B2B7B017A007901900213E0FD121B
:100A9C000E77900214EEF0A3EFF0900214E0FEA398
:100AAC00E0FD900213E0FC2401F582E43400F583B0
:100ABC00EDF0EEFF74022CF582E43400F583EFF0D8
:100ACC00900213E02402805378017C007D017B01AD
:100ADC007A0079817E007F081204D3900213E080A3
:100AEC003A78017C007D017B017A0079817E007F60
:100AFC00061204D37B017A0079017D06120E7790E1
:100B0C000214EEF0A3EFF0900214E0FEA3E09000CC
:100B1C0008F0EE900007F0900213E0900101F0D283
:0B0B2C00847F057E0012112C43840220
:010B3700229B
:03000000020C608F
:0C0C6000787FE4F6D8FD758121020CA716
:10040300E709F608DFFA8046E709F208DFFA803EDB
:1004130088828C83E709F0A3DFFA8032E309F608C8
:10042300DFFA8078E309F208DFFA807088828C8330
:10043300E309F0A3DFFA806489828A83E0A3F608E4
:10044300DFFA805889828A83E0A3F208DFFA804CBE
:1004530080D280FA80C680D4806980F28033801095
:1004630080A680EA809A80A880DA80E280CA8033FE
:1004730089828A83ECFAE493A3C8C582C8CCC58376
:10048300CCF0A3C8C582C8CCC583CCDFE9DEE78046
:100493000D89828A83E493A3F608DFF9ECFAA9F0C5
:1004A300EDFB2289828A83ECFAE0A3C8C582C8CC1B
:1004B300C583CCF0A3C8C582C8CCC583CCDFEADE34
:1004C300E880DB89828A83E493A3F208DFF980CC96
:1004D30088F0EF60010E4E60C388F0ED2402B4048F
:1004E3000050B9F582EB2402B4040050AF23234536
:0604F30082239004537304
:1004F900BB010689828A83E0225002E722BBFE0201
:09050900E32289828A83E4932233
:10051200BC000BBE0029EF8DF084FFADF022E4CCCD
:10052200F875F008EF2FFFEE33FEEC33FCEE9DEC96
:10053200984005FCEE9DFE0FD5F0E9E4CEFD22EDDC
:10054200F8F5F0EE8420D21CFEADF075F008EF2F26
:10055200FFED33FD4007985006D5F0F222C398FD17
:050562000FD5F0EA22B4
:10056700BB0110E58229F582E5833AF583E0F5F0D2
:10057700A3E0225009E92582F886F008E622BBFEAF
:100587000AE92582F8E2F5F008E222E5832AF583F5
:08059700E993F5F0A3E99322BA
:10009E00E5082414F582E43402F583E00508229085
:1000AE000211300703900214E475F0011205DE020E
:1000BE0004F92000E97F2ED2008018EF540F24900F
:1000CE00D43440D4FF30040BEF24BFB41A005003D5
:1000DE002461FFE50960021509050CE50C700205A7
:1000EE000B30070E900211E475F0011205DEEF02DF
:1000FE0005CC0212827403D2078003E4C207F5080E
:10010E009002111205F5E4F509F50BF50CE5096001
:10011E00077F201200E180F5750AFFC201C200C2FE
:10012E0002C203C205C206C2081200ADFF700D3036
:10013E0007057F001200F2AF0CAE0B22B4255FC292
:10014E00D5C2041200ADFF24D0B40A00501A75F0C7
:10015E000A780930D50508B6FF0106C6A426F62092
:10016E00D5047002D20380D924CFB41A00EF500404
:10017E00C2E5D2040202F3D20180C6D20080C0D200
:10018E000280BCD2D580BAD20580B47F201200E1A5
:10019E002002077401B5090040F112009EFF120003
:1001AE00E102011BD208D206809512009EFB1200BE
:1001BE009EFA12009EF94A4B700679C47A037BFFB1
:1001CE0020022EE509602A7E008E827583001205BC
:1001DE009F60060EEE650A70F0C2D5EBC0E0EAC075
:1001EE00E0E9C0E0EE12033AD0E0F9D0E0FAD0E058
:1001FE00FB1204F9FF60AAEBC0E0EAC0E0E9C0E040
:10020E001200E1D0E02401F9D0E03400FAD0E0FB96
:10021E00E50A0460DCD50AD980877BFF7A0379363C
:10022E00D202809C791080027908C206C20880082A
:10023E00D2D5790A8004790AC2D5E50A047002F58E
:10024E000AE4FAFDFEFF12009EFC7B082001131249
:10025E00009EFD7B1030000A12009EFE12009EFFD3
:10026E007B20EC3382D592D55013C3E43000069F29
:10027E00FFE49EFEE42001039DFDE49CFCE4CBF82C
:10028E00C201EC700CCFCECDCCE824F8F870F38020
:10029E0017C3EF33FFEE33FEED33FDEC33FCEB33E0
:1002AE00FB994002FB0FD8E9EB300105F8D0E0C412
:1002BE0048B201C0E00AEC4D4E4F78207B0070C270
:1002CE00EAB50A0040BCC0E012033CD0F0D0E020FA
:1002DE000104C4C0E0C4B201C0F01200CAD0F0D50F
:1002EE00F0EB02011B1205FE01B8530232580189D0
:1002FE004C01854202364F023E44023E49019E4366
:08030E000244550228460228B2
:100316004502284703E450018D2D01912E01B42B8F
:1003260001952301B22003CD2A014D48000001ACFE
:100336003F3F3F00790AA2D5200314300509B910C2
:10034600020404B9080104A2D520060250010420C3
:1003560002689202B509005034C0E07F20300319CC
:100366007F30A20272067205500F120393C202C2B8
:1003760006C205C2087F30800F300503E9C0E012CF
:1003860000E1300503D0E0F9D0E0B509CC3005171F
:100396007F30B9100C1200E17F583004077F788057
:1003A60003B908031200E13002057F2D0200E17F48
:1003B600202008F87F2B2006F322920280CF286E99
:1003C600756C6C2900D20112009E3001F8C20178CA
:1003D6000930D50108F602014D2D50434958120047
:1003E6009E2403B405004001E49003DF931200D27B
:0D03F600743A1200D2D203750904020232DB
:100C6C00021012E493A3F8E493A34003F68001F27C
:100C7C0008DFF48029E493A3F85407240CC8C33389
:100C8C00C4540F4420C8834004F456800146F6DF58
:100C9C00E4800B0102040810204080900861E47E7F
:100CAC00019360BCA3FF543F30E509541FFEE4934D
:100CBC00A360010ECF54C025E060A840B8E493A314
:100CCC00FAE493A3F8E493A3C8C582C8CAC583CA3F
:100CDC00F0A3C8C582C8CAC583CADFE9DEE780BEF7
:01097700007F
:10059F00BB010CE58229F582E5833AF583E0225011
:1005AF0006E92582F8E622BBFE06E92582F8E2225B
:0D05BF00E58229F582E5833AF583E4932275
:1005CC00BB010689828A83F0225002F722BBFE010E
:0205DC00F32208
:1005DE00F8E0FBA3A3E0F925F0F0E58215827002A6
:0705EE001583E0FA38F0224A
:0905F500EBF0A3EAF0A3E9F02207
:1005FE00D083D082F8E4937012740193700DA3A38C
:10060E0093F8740193F5828883E47374029368609F
:06061E00EFA3A3A380DF9F
:00000001FF
