:1013E800D3EF9400EE9400401600000075080B75CA
:0F13F80009BED509FDD508FAEF1F70E41E80E18C
:0114070022C2
:1014810043BC807F0A7E001213E853DEFC43DE0C6E
:0A14910053BCDF53A8DF43DE202226
:1013A600E4FDFC53BCF0EF444042BCE5BC30E5FB39
:1013B60053BCDF53BCBFAFBDEFADBEFCEDAE04FF0B
:0113C6002204
:0D000E00E4F5C7F5C5F5C675C380F5C4223D
:1014470075C78075F50C75C5038FC4EEF5C375C6F2
:0E1457005A75C6A57F0A7E001213E802000E29
:1013840075C78075F50C75C5028FC4EEF5C3AF053E
:101394008FC275C65A75C6A57F0A7E001213E8026D
:0213A400000E39
:1014080075C78075F50C75C5018FC4EEF5C375C633
:101418005A75C6A57F0A7E001213E8AFC202000EF5
:10142800759418E4F593F5927591F875960EF595FF
:0F14380075B2C2F5B175B48EF5B3F5CAF5C92218
:101360003D3D3D3D3D3D3D3D3D3D20636F64652040
:101370007374617274203D3D3D3D3D3D3D3D3D3DBD
:04138000200D0A0032
:10128C0043BA8012142812149B1214811214CD121A
:10129C0014B41214F71212C912151A12150A1200EC
:1012AC0006121545D2AF1213047BFF7A1379601224
:0D12BC000109120FE1120F6E1213C780F529
:1012C90043BA8090FEB6E0F090FEEDE4F090FEEABD
:1012D9007470F090FEED7401F090FEF27404F0A3C6
:1012E9007451F090FEF0E4F0A37431F090FEB5E093
:0B12F9004410F090FEE0E04401F02201
:05000600D288D2A822FF
:1014F700438E805389F0758ACD758CD4C28DD28C7A
:03150700D2A92244
:0A154500538EBF53890F4389102213
:10150A0053D1FDE4F5D575D4DC43D10843AF20228D
:10149B0053A23F759850438E01438E0475D7E87560
:0914AB00D6FF438E1075A8102233
:1014CD0075841043844043D12075D3E875D2FF4312
:0614DD00D18043AF102294
:0C099A0041010700410108004101090073
:1014B400E4900000F0900081F0900101F0F0A3F0BE
:0914C400A3F0A3F0A3F0C28422FE
:03009300020EEF6B
:100EEF00C0E0C083C082C0D075D000C007E5843099
:100EFF00E12A5384FD900101E0601AA3E0FF04F0A2
:100F0F0074012FF582E43400F583E0F5859001013B
:100F1F00E014F08007900102E4F0C284E58430E031
:100F2F00335384FE900000E07021900105E0D394CC
:100F3F00804002E4F0900105E02481F582E4340062
:100F4F00F583E585F0900105E004F0900103E4F0EE
:0F0F5F00A37405F0D007D0D0D082D083D0E03279
:03000B0002124D91
:10124D00C0E0C083C082C0D0900103E07002A3E073
:10125D006024900104E024FFF0900103E034FFF0DE
:10126D00E07002A3E0700F900105E0D394004006FA
:0F127D009000007401F0D0D0D082D083D0E03246
:030023000214655F
:10146500C0E0C083C082309907C299900107E4F0BB
:0C147500309802C298D082D083D0E032C0
:0B153A008F99900107E070FA04F02286
:101304007F107E00121408EFB4FF2090023F740394
:10131400F0A37401F0A37407F0A37432F0E4A3F013
:0E132400A37402F0A37450F012104F020D4299
:10104F00E4FFFE12144790023FE0FDE4FFFE12138F
:10105F0084900240E0FD7F017E00121384900241D4
:10106F00E0FD7F027E00121384900242E0FD7F03B9
:10107F007E00121384900243E0FD7F047E00121362
:10108F0084900244E0FD7F057E0012138490024598
:10109F00E0FD7F067E001213847D587F107E0002D4
:0210AF001384A8
:100D4200E4FFFE12140890023FEFF0E075F0B8A441
:100D5200FF90FEF9E5F0F0A3EFF07F017E001214A0
:100D620008900240EFF012154F7F027E0012140825
:100D7200900241EFF0E0FE5401900236F0EEC31310
:100D82005401A3F0900241E013135401900238F091
:100D92007F037E00121408900242EFF01214E37FE8
:100DA200047E00121408900243EFF090023CF0120D
:100DB20013C77F057E00121408900244EFF09002E0
:100DC2003DF012116E7F067E00121408900245EF6C
:060DD200F090010DF0227B
:1009A60060FC010F03D503FA04200446046D049588
:1009B60004BE04E70510053A0565059005BB05E785
:1009C6000613063F066C069906C606F30720074D72
:1009D600077A07A707D40800082D0859088508B123
:1009E60008DC09070931095B098409AD09D609FD47
:1009F6000A240A4B0A710A960ABB0ADE0B020B246A
:100A06000B460B670B870BA70BC60BE40C020C1EE1
:100A16000C3A0C560C700C8A0CA40CBC0CD40CECC6
:100A26000D020D190D2E0D430D570D6B0D7E0D90FC
:100A36000DA20DB40DC50DD50DE50DF50E040E1266
:100A46000E200E2E0E3B0E480E550E610E6D0E78C4
:100A56000E830E8D0E970EA10EAB0EB40EBD0EC6F6
:100A66000ECF0ED70EDF0EE70EEF0EF60EFD0F04BD
:100A76000F0B0F110F170F1D0F230F290F2F0F35F8
:100A86000F3A0F3F0F440F490F4E0F530F580F5C8D
:100A96000F600F650F690F6D0F710F740F780F7C64
:0E0E6400900211EBF0A3EAF0A3E9F0A3EDF089
:100E7200E4900218F0A3F0900217F0900214E0142C
:100E8200FF900217E0FEC39F505A900211E0FBA3AD
:100E9200E0FAA3E0F975F002EEA4F58285F0831280
:100EA2000567FF900215E0FCA3E0FDC39FEC95F0FF
:100EB200402AA3E02401FFE433FEEF25E0FFEE33F6
:100EC200FE8F828E83120567FFC3ED9FEC95F05073
:100ED2000B900217E0FFA3E4F0A3EFF0900217E0FB
:0C0EE20004F08097900218E0FEA3E0FFEF
:010EEE0022E1
:0510B10090020DEFF0BC
:1010B600E490020FF0A3F090020EF090020DE0FF14
:1010C6001213A6900210E02FF090020FE03EF0906F
:1010D600020EE004F0E0C3940A40E090020FE0FE46
:1010E600A3E0FF7C007D0A12051290020FEEF0A32A
:1010F600EFF07B017A01790F90020FE0FFA3E090F9
:0C1106000215CFF0A3EFF07D7E020E6416
:10151A00E4900233F090010EF0D2C3D2C2D2C122BB
:03000300021332B3
:10133200C0E0C083C082C0D075D000C00690023425
:10134200E0FEA3E0F58BEEF58D9002337401F0D24E
:0E1352008ED2ABD006D0D0D082D083D0E03285
:03001B00021112BD
:10111200C0E0C083C082C0D0900233E06401703965
:10112200F0900236E0B40109900239E0B40102C243
:10113200C1900237E0B4010990023AE0B40102C260
:10114200C2900238E0B4010990023BE0B40102C24D
:10115200C3758BF7758DFF800AD2C3D2C2D2C1C2CA
:0C1162008EC2ABD0D0D082D083D0E0325F
:1014E300EF75F04BA42490FEE5F034E2900234F063
:0414F300A3CEF02272
:0A154F00EFB40103C2A322D2A322CD
:10152A00EF75F0B8A4FF90FEF9E5F0F0A3EFF02212
:1013C70090023CE0B4011190023EE090FEFDB401B2
:1013D700028008E4F0C2A82290FEFD7480F0D2A833
:0113E70022E3
:10116E00EF24FE601F24FE6032240370477F1E12A0
:10117E0014E37F0312152A900242741EF090023F70
:10118E007403802C7F321214E37F0412152A90020E
:10119E00427432F090023F740480157F501214E3B3
:1011AE007F0612152A9002427450F090023F740688
:0511BE00F012104F22A9
:100F6E0090010EE06401706A7F041210B190010AC4
:100F7E00EFF07F051210B190010BEFF07F0612100B
:100F8E00B190010CEFF0A3E0FF90010AE0C39F4087
:100F9E0007E4900239F080069002397401F0900156
:100FAE000BE0C39F4007E490023AF0800690023AAD
:100FBE007401F090010DE0FF90010CE0C39F40071B
:100FCE00E490023BF0800690023B7401F0E4900145
:030FDE000EF022F0
:050AA60042024D0000BA
:03009B000211C38C
:0611C300C0E0C083C08201
:1011C90090023E3093057401F08002E4F090010E24
:1011D900E0702690024EE004F0700690024DE004A3
:1011E900F090024DE07004A3E06464700C90010E6D
:0911F90004F090024DE4F0A3F0B3
:07120200D082D083D0E0325E
:100FE100900000E064017065F07B017A00798190E6
:100FF1000105E024FEFD120026AD07AC06900105B7
:10100100E0FB247FF582E43400F583E0FE74802B5D
:10101100F582E43400F583E0FBEBFFE4900105F099
:10102100EDB50729ECB50625900081E0B41B1EA3A0
:10103100E024FC600F24FE600E24F6600D240D7088
:0D1041000C020AAC0206F2020C8412084DEB
:01104E00227F
:100AAC009002497403F0900085A3E025E090024881
:100ABC00F0900083E0FEA3E0FDEDFF90024BEEF022
:100ACC00A3EFF0900001741BF0A37403F0900248A4
:100ADC00E0900003F090020BEEF0A3EFF0900248D0
:100AEC00E0C313FF90024CE02FFF90024BE0340068
:100AFC00FE90020BE0FCA3E0FDC39FEC9E400302C2
:100B0C000BB1E4900247F0900246F0EC7053ED14F8
:100B1C00602014603314603C240370457F04121071
:100B2C00B1900247EFF07F051210B1900246EFF042
:100B3C00802F7F071210B1900246EFF07F06121043
:100B4C00B1900247EFF080199002467441F0A37403
:100B5C0019F0800DE4900246F090023EE0900247BE
:100B6C00F0900246E0FF900249E0FE04F074012E82
:100B7C00F582E43400F583EFF0900247E0FF900239
:100B8C0049E0FE04F074012EF582E43400F583EFA5
:100B9C00F090020CE004F06003020AE990020BE012
:100BAC0004F0020AE9900248E02403FD7F03020BE3
:010BBC00BD7B
:1006F2009002497403F0900085A3E025E09002483F
:10070200F0900083E0FEA3E0FDEDFF90024BEEF0DF
:10071200A3EFF0900001741BF0A37404F090024860
:10072200E0900003F090020BEEF0A3EFF09002488D
:10073200E0C313FF90024CE02FFF90024BE0340025
:10074200FE90020BE0FCA3E0FDC39FEC9E4003027F
:100752000841E4900247F0900246F0EC6003020880
:1007620000ED14602B1460331460721460791470FD
:10077200030207F32405600302080090FEF9E0FE7D
:10078200A3E0FF7C007DB8120512900247EF8008BB
:10079200A2A3B3E433900247F0805E900237E025D3
:1007A200E0FF900236E04FFF900238E025E025E0BE
:1007B2004F900247F0900234E0FEA3E0FFEF247076
:1007C200FFEE341DFEE434FFFDE434FFFCE47B4B1A
:1007D200FAF9F8121209900246EFF0802190023CD9
:1007E200E0900247F0801290023DE0900247F080D4
:1007F2000890010DE0900247F0E4900246F090026A
:1008020046E0FF900249E0FE04F074012EF582E416
:100812003400F583EFF0900247E0FF900249E0FEDA
:1008220004F074012EF582E43400F583EFF09002B7
:100832000CE004F0700690020BE004F002072F9027
:0B0842000248E02403FD7F04020BBD10
:100C8400900084E014602C14603B146070147003B2
:100C9400020D16147003020D2C24056003020D3896
:100CA400900086E0FF12152A900086E090023FF043
:100CB400020D38900086E0FF12154F900086E090F8
:100CC4000240F0806F900086E0FE5401900236F0FE
:100CD400EEC3135401A3F0900086E0131354019063
:100CE4000238F0900085E0FF1214E3900086E09053
:100CF4000241F0900085E0900242F0803790008637
:100D0400E090023CF01213C7900086E0900243F09A
:100D14008022900086E0FF90023DF012116E900058
:100D240086E0900244F0800C900086E090010DF083
:0E0D3400900245F07D087F06120BBD02104FA5
:10084D0090024A7407F0900087E0900248F0900003
:10085D0083E0FEA3E0FDEDFF90024BEEF0A3EFF081
:10086D0090020BEEF0A3EFF0900248E0C313FF905F
:10087D00024CE02FFF90024BE03400FE90020BE0A3
:10088D00FCA3E0FDC39FEC9E400302099090024A39
:10089D00E02481F582E43400F583E0900246F09087
:1008AD00024AE02482F582E43400F583E0900247A9
:1008BD00F0EC6003020975ED14602C14603B1460BC
:1008CD007014700302095314700302096924056042
:1008DD0003020975900247E0FF12152A900247E0C6
:1008ED0090023FF0020975900247E0FF12154F90FC
:1008FD000247E0900240F0806F900247E0FE540105
:10090D00900236F0EEC3135401A3F0900247E013AA
:10091D00135401900238F0900246E0FF1214E39058
:10092D000247E0900241F0900246E0900242F080D2
:10093D0037900247E090023CF01213C7900247E057
:10094D00900243F08022900247E0FF90023DF012AA
:10095D00116E900247E0900244F0800C900247E047
:10096D0090010DF0900245F090024AE02402F090C3
:10097D00020CE004F0600302087590020BE004F035
:0D098D000208757D087F10120BBD02104F8F
:050BBD0090020DEDF0B7
:100BC200EF24FC600F24FE604F24F66064240D6065
:100BD20003020C717B017A00790190020DE0FD1293
:100BE200002690020EEEF0A3EFF090020EE0FEA3BC
:100BF200E0FD90020DE0FC2401F582E43400F5836F
:100C0200EDF0EEFF74022CF582E43400F583EFF090
:100C120090020DE02402805378017C007D017B016B
:100C22007A0079817E007F081204D390020DE08061
:100C32003A78017C007D017B017A0079817E007F18
:100C4200061204D37B017A0079017D0612002690F8
:100C5200020EEEF0A3EFF090020EE0FEA3E0900091
:100C620008F0EE900007F090020DE0900101F0D242
:100C7200847F027E001213E84384027F017E000219
:020C820013E875
:05002600900210EDF056
:10002B0074FFA3F0A3F01204F9FF900211E0F0A308
:10003B00E06FF0E4FD900211E0FEA3E0FF30E01969
:10004B00EEC313FEEF13FFEE64A0FEEF6401FF900F
:10005B000211EEF0A3EFF0800B900211E0C313F04E
:10006B00A3E013F00DEDB408CC740129F9E43AFACE
:0E007B00900210E014F070AEA3E0FEA3E0FFD0
:010089002254
:03000000020DD816
:0C0DD800787FE4F6D8FD758121020E1F23
:10040300E709F608DFFA8046E709F208DFFA803EDB
:1004130088828C83E709F0A3DFFA8032E309F608C8
:10042300DFFA8078E309F208DFFA807088828C8330
:10043300E309F0A3DFFA806489828A83E0A3F608E4
:10044300DFFA805889828A83E0A3F208DFFA804CBE
:1004530080D280FA80C680D4806980F28033801095
:1004630080A680EA809A80A880DA80E280CA8033FE
:1004730089828A83ECFAE493A3C8C582C8CCC58376
:10048300CCF0A3C8C582C8CCC583CCDFE9DEE78046
:100493000D89828A83E493A3F608DFF9ECFAA9F0C5
:1004A300EDFB2289828A83ECFAE0A3C8C582C8CC1B
:1004B300C583CCF0A3C8C582C8CCC583CCDFEADE34
:1004C300E880DB89828A83E493A3F208DFF980CC96
:1004D30088F0EF60010E4E60C388F0ED2402B4048F
:1004E3000050B9F582EB2402B4040050AF23234536
:0604F30082239004537304
:1004F900BB010689828A83E0225002E722BBFE0201
:09050900E32289828A83E4932233
:10051200BC000BBE0029EF8DF084FFADF022E4CCCD
:10052200F875F008EF2FFFEE33FEEC33FCEE9DEC96
:10053200984005FCEE9DFE0FD5F0E9E4CEFD22EDDC
:10054200F8F5F0EE8420D21CFEADF075F008EF2F26
:10055200FFED33FD4007985006D5F0F222C398FD17
:050562000FD5F0EA22B4
:10056700BB0110E58229F582E5833AF583E0F5F0D2
:10057700A3E0225009E92582F886F008E622BBFEAF
:100587000AE92582F8E2F5F008E222E5832AF583F5
:08059700E993F5F0A3E99322BA
:10120900C2D5E830E70FB2D5E4C39BFBE49AFAE410
:1012190099F9E498F8EC30E717B2D512123F1206A3
:101229001AE4C39BFBE49AFAE499F9E498F8800379
:1012390012061A30D50DE4C39FFFE49EFEE49DFD1E
:04124900E49CFC2203
:10009E00E508240EF582E43402F583E0050822908B
:1000AE00020B30070390020EE475F0011206AC024B
:1000BE0004F92000E97F2ED2008018EF540F24900F
:1000CE00D43440D4FF30040BEF24BFB41A005003D5
:1000DE002461FFE50960021509050CE50C700205A7
:1000EE000B30070E90020BE475F0011206ACEF0216
:1000FE0005CC02153A7403D2078003E4C207F50853
:10010E0090020B1206C3E4F509F50BF50CE5096038
:10011E00077F201200E180F5750AFFC201C200C2FE
:10012E0002C203C205C206C2081200ADFF700D3036
:10013E0007057F001200F2AF0CAE0B22B4255FC292
:10014E00D5C2041200ADFF24D0B40A00501A75F0C7
:10015E000A780930D50508B6FF0106C6A426F62092
:10016E00D5047002D20380D924CFB41A00EF500404
:10017E00C2E5D2040202F3D20180C6D20080C0D200
:10018E000280BCD2D580BAD20580B47F201200E1A5
:10019E002002077401B5090040F112009EFF120003
:1001AE00E102011BD208D206809512009EFB1200BE
:1001BE009EFA12009EF94A4B700679C47A037BFFB1
:1001CE0020022EE509602A7E008E827583001205BC
:1001DE009F60060EEE650A70F0C2D5EBC0E0EAC075
:1001EE00E0E9C0E0EE12033AD0E0F9D0E0FAD0E058
:1001FE00FB1204F9FF60AAEBC0E0EAC0E0E9C0E040
:10020E001200E1D0E02401F9D0E03400FAD0E0FB96
:10021E00E50A0460DCD50AD980877BFF7A0379363C
:10022E00D202809C791080027908C206C20880082A
:10023E00D2D5790A8004790AC2D5E50A047002F58E
:10024E000AE4FAFDFEFF12009EFC7B082001131249
:10025E00009EFD7B1030000A12009EFE12009EFFD3
:10026E007B20EC3382D592D55013C3E43000069F29
:10027E00FFE49EFEE42001039DFDE49CFCE4CBF82C
:10028E00C201EC700CCFCECDCCE824F8F870F38020
:10029E0017C3EF33FFEE33FEED33FDEC33FCEB33E0
:1002AE00FB994002FB0FD8E9EB300105F8D0E0C412
:1002BE0048B201C0E00AEC4D4E4F78207B0070C270
:1002CE00EAB50A0040BCC0E012033CD0F0D0E020FA
:1002DE000104C4C0E0C4B201C0F01200CAD0F0D50F
:1002EE00F0EB02011B1206CC01B853023258018901
:1002FE004C01854202364F023E44023E49019E4366
:08030E000244550228460228B2
:100316004502284703E450018D2D01912E01B42B8F
:1003260001952301B22003CD2A014D48000001ACFE
:100336003F3F3F00790AA2D5200314300509B910C2
:10034600020404B9080104A2D520060250010420C3
:1003560002689202B509005034C0E07F20300319CC
:100366007F30A20272067205500F120393C202C2B8
:1003760006C205C2087F30800F300503E9C0E012CF
:1003860000E1300503D0E0F9D0E0B509CC3005171F
:100396007F30B9100C1200E17F583004077F788057
:1003A60003B908031200E13002057F2D0200E17F48
:1003B600202008F87F2B2006F322920280CF286E99
:1003C600756C6C2900D20112009E3001F8C20178CA
:1003D6000930D50108F602014D2D50434958120047
:1003E6009E2403B405004001E49003DF931200D27B
:0D03F600743A1200D2D203750904020232DB
:100DE40002128CE493A3F8E493A34003F68001F287
:100DF40008DFF48029E493A3F85407240CC8C33310
:100E0400C4540F4420C8834004F456800146F6DFDE
:100E1400E4800B010204081020408090099AE47ECB
:100E2400019360BCA3FF543F30E509541FFEE493D3
:100E3400A360010ECF54C025E060A840B8E493A39A
:100E4400FAE493A3F8E493A3C8C582C8CAC583CAC5
:100E5400F0A3C8C582C8CAC583CADFE9DEE780BE7D
:010AAB00004A
:10059F00BB010CE58229F582E5833AF583E0225011
:1005AF0006E92582F8E622BBFE06E92582F8E2225B
:0D05BF00E58229F582E5833AF583E4932275
:1005CC00BB010689828A83F0225002F722BBFE010E
:0205DC00F32208
:1005DE0075F008758200EF2FFFEE33FECD33CDCCD4
:1005EE0033CCC58233C5829BED9AEC99E582984057
:1005FE000CF582EE9BFEED9AFDEC99FC0FD5F0D634
:10060E00E4CEFBE4CDFAE4CCF9A88222B800C1B95D
:10061E000059BA002DEC8BF084CFCECDFCE5F0CB9B
:10062E00F97818EF2FFFEE33FEED33FDEC33FCEBD4
:10063E0033FB10D703994004EB99FB0FD8E5E4F98F
:10064E00FA227818EF2FFFEE33FEED33FDEC33FC7C
:10065E00C933C910D7059BE99A4007EC9BFCE99A70
:10066E00F90FD8E0E4C9FAE4CCFB2275F010EF2FB5
:10067E00FFEE33FEED33FDCC33CCC833C810D707B5
:10068E009BEC9AE899400AED9BFDEC9AFCE899F8F0
:0E069E000FD5F0DAE4CDFBE4CCFAE4C8F92283
:1006AC00F8E0FBA3A3E0F925F0F0E58215827002D7
:0706BC001583E0FA38F0227B
:0906C300EBF0A3EAF0A3E9F02238
:1006CC00D083D082F8E4937012740193700DA3A3BD
:1006DC0093F8740193F5828883E4737402936860D1
:0606EC00EFA3A3A380DFD1
:00000001FF
