:10162800D3EF9400EE9400401600000075080B7587
:0F16380009BED509FDD508FAEF1F70E41E80E149
:011647002280
:10173E00D3EF9400EE9400400A000000EF1F70F00B
:04174E001E80ED22EA
:1016DC0043BC807F0A7E0012162853DEFC43DE0CCE
:0A16EC0053BCDF53A8DF43DE2022C9
:1015E600E4FDFC53BCF0EF444042BCE5BC30E5FBF7
:1015F60053BCDF53BCBFAFBDEFADBEFCEDAE04FFC9
:0116060022C1
:0D000E00E4F5C7F5C5F5C675C380F5C4223D
:1016870075C78075F50C75C5038FC4EEF5C375C6B0
:0E1697005A75C6A57F0A7E0012162802000EA4
:1015C40075C78075F50C75C5028FC4EEF5C3AF05FC
:1015D4008FC275C65A75C6A57F0A7E0012162802E8
:0215E400000EF7
:1016480075C78075F50C75C5018FC4EEF5C375C6F1
:101658005A75C6A57F0A7E00121628AFC202000E70
:10166800759418E4F593F5927591F875960EF595BD
:0F16780075B2C2F5B175B48EF5B3F5CAF5C922D6
:1015A0003D3D3D3D3D3D3D3D3D3D20636F646520FE
:1015B0007374617274203D3D3D3D3D3D3D3D3D3D7B
:0415C000200D0A00F0
:1013F40043BA801216681216F61216DC1217281257
:10140400170F12177A1214C612175212179D1217B9
:101414008D1200061217C8D2AF1215397BFF7A1548
:1014240079A01201091211AD1215011216079002CA
:0F1434003AE0B401F01210A8E490023AF080E61A
:1014C60043BA8090FEB6E0F090FEEDE4F090FEEABE
:1014D6007470F090FEED7401F090FEF27404F0A3C7
:1014E6007451F090FEF0E4F0A37431F090FEB5E094
:0B14F6004410F090FEE0E04401F02202
:05000600D288D2A822FF
:10177A00438E805389F0758ACD758CD4C28DD28CF4
:03178A00D2A922BF
:0A17C800538EBF53890F438910228E
:10178D0053D1FDE4F5D575D4DC43D10843AF202208
:1016F60053A23F759850438E01438E0475D7E87503
:09170600D6FF438E1075A81022D5
:1017280075841043844043D12075D3E875D2FF43B4
:06173800D18043AF102236
:0C0B1D00410107004101080041010900EE
:10170F00E4900000F0900081F0900101F0F0A3F060
:09171F00A3F0A3F0A3F0C28422A0
:0300930002112E29
:10112E00C0E0C083C082C0D075D000C007E5843057
:10113E00E12A5384FD900101E0601AA3E0FF04F060
:10114E0074012FF582E43400F583E0F585900101FA
:10115E00E014F08007900102E4F0C284E58430E0F0
:10116E00335384FE900000E07021900105E0D3948B
:10117E00804002E4F0900105E02481F582E4340021
:10118E00F583E585F0900105E004F0900103E4F0AD
:0F119E00A37405F0D007D0D0D082D083D0E03238
:03000B0002148755
:10148700C0E0C083C082C0D0900103E07002A3E037
:101497006024900104E024FFF0900103E034FFF0A2
:1014A700E07002A3E0700F900105E0D394004006BE
:0F14B7009000007401F0D0D0D082D083D0E0320A
:030023000216A51D
:1016A500C0E0C083C082309907C299900107E4F079
:0C16B500309802C298D082D083D0E0327E
:0B17BD008F99900107E070FA04F02201
:1016C100D2907F027E0012173EC2907F197E0012D7
:0B16D1001628D2907F1E7E0002173EFC
:10002600E4900212F0900211F03090FD7F287E00DD
:1000360012173E30901F2090FD900212E0FF9002B2
:1000460011E0FEC374079EFEF87401088002C333F4
:10005600D8FC4F801B900212E0FF900211E0FEC315
:1000660074079EFEF87401088002C333D8FCF45F5F
:10007600900212F0900211E004F0E0C3940840A947
:05008600900212E0FFF2
:01008B002252
:10121B001216C120905D3090FD2090FD120026909B
:10122B00020DEFF012002690020EEFF01200269046
:10123B00020FEFF0120026900210EFF0120026D2F0
:10124B009090020EE0FD90020DE0F92DFDE433FCD1
:10125B0090020FE0FE7A002DFDEA3CFCA3E02DFD91
:10126B00EA3CFCEFB5050CEAB5040890010FEEF073
:03127B00A3E9F0F4
:01127E00224D
:101539007F107E00121648EFB4FF2790024874030B
:10154900F0A37401F0A37407F0A37432F0E4A3F0DC
:10155900A37402F0A37450F0E4A3F0A3F0A3F01273
:0515690010A8020EE1D4
:1010A800E4FFFE121687900248E0FDE4FFFE1215E9
:1010B800C4900249E0FD7F017E001215C490024AE7
:1010C800E0FD7F027E001215C490024BE0FD7F0315
:1010D8007E001215C490024CE0FD7F047E001215BC
:1010E800C490024DE0FD7F057E001215C490024EAB
:1010F800E0FD7F067E001215C490024FE0FD7F07D9
:101108007E001215C4900250E0FD7F087E00121583
:10111800C4900251E0FD7F097E001215C47D587FFE
:06112800107E000215C458
:100EE100E4FFFE121648900248EFF0E075F0B8A456
:100EF100FF90FEF9E5F0F0A3EFF07F017E001216FE
:100F010048900249EFF01217D27F027E0012164874
:100F110090024AEFF0E0FE540190023EF0EEC3135E
:100F21005401A3F090024AE013135401900240F0DF
:100F31007F037E0012164890024BEFF01217667F76
:100F4100047E0012164890024CEFF0900244F01219
:100F510016077F057E0012164890024DEFF09002B1
:100F610045F01213A07F067E0012164890024EEF44
:100F7100F090010DF090024FE0900237F090025096
:100F8100E0FEA3E0FDEDFF900238EEF0A3EFF022CA
:100B290060FC011103D503FA04200446046D049501
:100B390004BE04E70510053A0565059005BB05E700
:100B49000613063F066C069906C606F30720074DED
:100B5900077A07A707D40800082D0859088508B19E
:100B690008DC09070931095B098409AD09D609FDC2
:100B79000A240A4B0A710A960ABB0ADE0B020B24E5
:100B89000B460B670B870BA70BC60BE40C020C1E5D
:100B99000C3A0C560C700C8A0CA40CBC0CD40CEC42
:100BA9000D020D190D2E0D430D570D6B0D7E0D9078
:100BB9000DA20DB40DC50DD50DE50DF50E040E12E2
:100BC9000E200E2E0E3B0E480E550E610E6D0E7840
:100BD9000E830E8D0E970EA10EAB0EB40EBD0EC672
:100BE9000ECF0ED70EDF0EE70EEF0EF60EFD0F0439
:100BF9000F0B0F110F170F1D0F230F290F2F0F3574
:100C09000F3A0F3F0F440F490F4E0F530F580F5C08
:100C19000F600F650F690F6D0F710F740F780F7CDF
:0E101D00900213EBF0A3EAF0A3E9F0A3EDF0CC
:10102B00E490021AF0A3F0900219F0900216E0146B
:10103B00FF900219E0FEC39F505A900213E0FBA3EE
:10104B00E0FAA3E0F975F002EEA4F58285F08312C5
:10105B000579FF900217E0FCA3E0FDC39FEC95F030
:10106B00402AA3E02401FFE433FEEF25E0FFEE333B
:10107B00FE8F828E83120579FFC3ED9FEC95F050A6
:10108B000B900219E0FFA3E4F0A3EFF0900219E03C
:0C109B0004F0809790021AE0FEA3E0FF32
:0110A7002226
:0512E30090020FEFF086
:1012E800E4900211F0A3F0900210F090020FE0FFDA
:1012F8001215E6900212E02FF0900211E03EF090F5
:101308000210E004F0E0C3940A40E0900211E0FE0D
:10131800A3E0FF7C007D0A120524900211EEF0A3E1
:10132800EFF07B017A017911900211E0FFA3E090C0
:0C1338000217CFF0A3EFF07D7E02101D25
:10175200E490023BF0900247F090010EF0D2C3D227
:04176200C2D2C1220C
:10179D00E4900235F0900237F0A3F0A3F0A3F0220D
:0300030002156E75
:10156E00C0E0C083C082C0D075D000C00690023CDF
:10157E00E0FEA3E0F58BEEF58D90023B7401F0904A
:10158E000247F0D28ED2ABD006D0D0D082D083D04C
:02159E00E03239
:03001B0002134489
:10134400C0E0C083C082C0D090023BE06401703929
:10135400F090023EE0B40109900241E0B40102C2FF
:10136400C190023FE0B40109900242E0B40102C21C
:10137400C2900240E0B40109900243E0B40102C209
:10138400C3758BF7758DFF800AD2C3D2C2D2C1C296
:0C1394008EC2ABD0D0D082D083D0E0322B
:10176600EF75F05AA424B4FEE5F034DC90023CF0A8
:04177600A3CEF022EC
:0A17D200EFB40103C2A322D2A32248
:1017AD00EF75F0B8A4FF90FEF9E5F0F0A3EFF0228D
:10160700900244E0B40111900246E090FEFDB4015F
:10161700028008E4F0C2A82290FEFD7480F0D2A8F0
:0116270022A0
:1013A000EF24FE601E146032240270477F1E121765
:1013B000667F031217AD90024B741EF090024874C2
:1013C00003802C7F321217667F041217AD90024BF8
:1013D0007432F0900248740480157F501217667FB3
:1013E000061217AD90024B7450F09002487406F04C
:0413F0001210A8220D
:1015010090010EE06401702F7F041212E390010A32
:10151100EFF012121B90010DE0FF90010AE0C39F52
:101521004006E490024180059002417401F0A3F06D
:08153100A3F0E490010EF0228A
:100C290042025200004102560042025700004202AD
:030C39005900005F
:03009B0002070455
:10070400C0E0C0F0C083C082C0D075D000C000C0BB
:0707140004C005C006C00788
:10071B009002463093057401F08002E4F090010ED4
:10072B00E07026900253E004F07006900252E00451
:10073B00F0900252E07004A3E06464700C90010E20
:10074B0004F0900252E4F0A3F0900247E0B40125CC
:10075B0090025AE004F07006900259E004F0900207
:10076B0059E0B40110A3E0B4F40B900259E4F0A3E8
:10077B00F0900247F0900247E06401703C90023E1B
:10078B00E0B4010D900241E0B40106900254E00484
:10079B00F090023FE0B4010D900242E0B4010690EC
:1007AB000255E004F0900240E0B4010D900243E0EA
:1007BB00B40106900256E004F0900255E0FF90025F
:1007CB0054E02FFFE433FE900256E07C002FFFEC49
:1007DB003EFE90024BE0FD120512900257EEF0A385
:1007EB00EFF0C39430EE94754060900236E004F065
:1007FB00900257E4F0A3F0900256F0900255F0905F
:10080B000254F0900236E0643C703FA3E004F09099
:10081B000236E4F0A3E090024FF090023A7401F03C
:10082B00900237E0B43C23900239E004F07006905C
:10083B000238E004F0900238E0FCA3E0FDEC9002FB
:0A084B0050F0A3EDF0900237E4F046
:10085500D007D006D005D004D000D0D0D082D08328
:05086500D0F0D0E032EC
:1011AD00900000E064017065F07B017A0079819018
:1011BD000105E024FEFD12127FAD07AC069001057E
:1011CD00E0FB247FF582E43400F583E0FE74802B90
:1011DD00F582E43400F583E0FBEBFFE4900105F0CC
:1011ED00EDB50729ECB50625900081E0B41B1EA3D3
:1011FD00E024FC600F24FE600E24F6600D240D70BB
:0D120D000C02086A020C3D020E231209C5F6
:01121A0022B1
:10086A0090025E7403F0900085A3E025E090025D9B
:10087A00F0900083E0FEA3E0FDEDFF900260EEF051
:10088A00A3EFF0900001741BF0A37403F090025DD3
:10089A00E0900003F090020DEEF0A3EFF090025DFD
:1008AA00E0C313FF900261E02FFF900260E0340082
:1008BA00FE90020DE0FCA3E0FDC39FEC9E40030204
:1008CA0009B9E490025CF090025BF0EC6003020963
:1008DA0078ED14602B14603314607214607914700C
:1008EA000302096B2405600302097890FEF9E0FE11
:1008FA00A3E0FF7C007DB812052490025CEF80081B
:10090A00A2A3B3E43390025CF0805E90023FE0253C
:10091A00E0FF90023EE04FFF900240E025E025E034
:10092A004F90025CF090023CE0FEA3E0FFEF2470DF
:10093A00FFEE341DFEE434FFFDE434FFFCE47B4BA0
:10094A00FAF9F812144390025BEFF0802190024406
:10095A00E090025CF08012900245E090025CF08028
:10096A000890010DE090025CF0E490025BF09002C6
:10097A005BE0FF90025EE0FE04F074012EF582E473
:10098A003400F583EFF090025CE0FF90025EE0FE37
:10099A0004F074012EF582E43400F583EFF090023E
:1009AA000EE004F0700690020DE004F00208A79031
:0B09BA00025DE02403FD7F03020D5CE2
:100C3D0090025E7403F0900085A3E025E090025DC4
:100C4D00F0900083E0FEA3E0FDEDFF900260EEF07A
:100C5D00A3EFF0900001741BF0A37404F090025DFB
:100C6D00E0900003F090020DEEF0A3EFF090025D26
:100C7D00E0C313FF900261E02FFF900260E03400AB
:100C8D00FE90020DE0FCA3E0FDC39FEC9E4003022D
:100C9D000D50E490025CF090025BF0EC7064ED148A
:100CAD0060211460271460311460381460442405E9
:100CBD0070507F041212E390025CEFF0E490025B3F
:100CCD00F0803FE490025BF0A3F08036900110E0DD
:100CDD0090025BF090010F8012E490025BF09002A5
:100CED00468008E490025BF0900237E090025CF0E1
:100CFD008010900238E0FCA3E0FDEC90025BF0A3C5
:100D0D00EDF090025BE0FF90025EE0FE04F07401F6
:100D1D002EF582E43400F583EFF090025CE0FF9055
:100D2D00025EE0FE04F074012EF582E43400F583DA
:100D3D00EFF090020EE004F0700690020DE004F06A
:0F0D4D00020C7A90025DE02403FD7F04020D5C2E
:100E2300900084E014602C14603B14607014700311
:100E3300020EB5147003020ECB24056003020ED715
:100E4300900086E0FF1217AD900086E0900248F014
:100E5300020ED7900086E0FF1217D2900086E09032
:100E63000249F0806F900086E0FE540190023EF04C
:100E7300EEC3135401A3F0900086E01313540190C2
:100E83000240F0900085E0FF121766900086E09024
:100E9300024AF0900085E090024BF0803790008684
:100EA300E0900244F0121607900086E090024CF0A6
:100EB3008022900086E0FF900245F01213A090007C
:100EC30086E090024DF0800C900086E090010DF0DA
:0E0ED30090024EF07D087F06120D5C0210A802
:1009C50090025F7407F0900087E090025DF0900060
:1009D50083E0FEA3E0FDEDFF900260EEF0A3EFF0F3
:1009E50090020DEEF0A3EFF090025DE0C313FF90CF
:1009F5000261E02FFF900260E03400FE90020DE0FE
:100A0500FCA3E0FDC39FEC9E4003020B1390025F25
:100A1500E02481F582E43400F583E090025BF090F8
:100A2500025FE02482F582E43400F583E090025C05
:100A3500F0EC6003020AF8ED14602C14603B1460BE
:100A450070147003020ACB147003020AEC240560CB
:100A550003020AF890025CE0FF1217AD90025CE019
:100A6500900248F0020AF890025CE0FF1217D2905B
:100A7500025CE0900249F0807A90025CE0FE54014D
:100A850090023EF0EEC3135401A3F090025CE01314
:100A9500135401900240F090025BE0FF121766903C
:100AA500025CE090024AF090025BE090024BF0801D
:100AB5004290025CE0900244F012160790025CE05E
:100AC50090024CF0802D90025CE0900245F090027F
:100AD5005BE0B40108900245E0FF1213A090025CB0
:100AE500E090024DF0800C90025CE090010DF090DA
:100AF500024EF090025FE02402F090020EE004F056
:100B050060030209ED90020DE004F00209ED7D0895
:080B15007F10120D5C0210A814
:050D5C0090020FEDF014
:100D6100EF24FC600F24FE604F24F66064240D60C4
:100D710003020E107B017A00790190020FE0FD124F
:100D8100127F900210EEF0A3EFF0900210E0FEA3AC
:100D9100E0FD90020FE0FC2402F582E43400F583CB
:100DA100EDF0EEFF74012CF582E43400F583EFF0F1
:100DB10090020FE02402805378017C007D017B01C9
:100DC1007A0079817E007F081204D390020FE080BF
:100DD1003A78017C007D017B017A0079817E007F78
:100DE100061204D37B017A0079017D0612127F90ED
:100DF1000210EEF0A3EFF0900210E0FEA3E09000ED
:100E010008F0EE900007F090020FE0900101F0D29F
:100E1100847F027E001216284384027F017E000235
:020E2100162891
:05127F00900212EDF0E9
:1012840074FFA3F0A3F01204F9FF900213E0F0A39B
:10129400E06FF0E4FD900213E0FEA3E0FF30E019FC
:1012A400EEC313FEEF13FFEE64A0FEEF6401FF90A4
:1012B4000213EEF0A3EFF0800B900213E0C313F0DF
:1012C400A3E013F00DEDB408CC740129F9E43AFA63
:0E12D400900212E014F070AEA3E0FEA3E0FF63
:0112E20022E9
:03000000020F915B
:0C0F9100787FE4F6D8FD758121020FD8AE
:10040300E709F608DFFA8046E709F208DFFA803EDB
:1004130088828C83E709F0A3DFFA8032E309F608C8
:10042300DFFA8078E309F208DFFA807088828C8330
:10043300E309F0A3DFFA806489828A83E0A3F608E4
:10044300DFFA805889828A83E0A3F208DFFA804CBE
:1004530080D280FA80C680D4806980F28033801095
:1004630080A680EA809A80A880DA80E280CA8033FE
:1004730089828A83ECFAE493A3C8C582C8CCC58376
:10048300CCF0A3C8C582C8CCC583CCDFE9DEE78046
:100493000D89828A83E493A3F608DFF9ECFAA9F0C5
:1004A300EDFB2289828A83ECFAE0A3C8C582C8CC1B
:1004B300C583CCF0A3C8C582C8CCC583CCDFEADE34
:1004C300E880DB89828A83E493A3F208DFF980CC96
:1004D30088F0EF60010E4E60C388F0ED2402B4048F
:1004E3000050B9F582EB2402B4040050AF23234536
:0604F30082239004537304
:1004F900BB010689828A83E0225002E722BBFE0201
:09050900E32289828A83E4932233
:10051200EF8DF0A4A8F0CF8CF0A428CE8DF0A42EFD
:02052200FE22B7
:10052400BC000BBE0029EF8DF084FFADF022E4CCBB
:10053400F875F008EF2FFFEE33FEEC33FCEE9DEC84
:10054400984005FCEE9DFE0FD5F0E9E4CEFD22EDCA
:10055400F8F5F0EE8420D21CFEADF075F008EF2F14
:10056400FFED33FD4007985006D5F0F222C398FD05
:050574000FD5F0EA22A2
:10057900BB0110E58229F582E5833AF583E0F5F0C0
:10058900A3E0225009E92582F886F008E622BBFE9D
:100599000AE92582F8E2F5F008E222E5832AF583E3
:0805A900E993F5F0A3E99322A8
:10144300C2D5E830E70FB2D5E4C39BFBE49AFAE4D4
:1014530099F9E498F8EC30E717B2D512147912062B
:101463002CE4C39BFBE49AFAE499F9E498F880032B
:1014730012062C30D50DE4C39FFFE49EFEE49DFDD0
:04148300E49CFC22C7
:10009E00E5082410F582E43402F583E00508229089
:1000AE00020D300703900210E475F0011206BE0235
:1000BE0004F92000E97F2ED2008018EF540F24900F
:1000CE00D43440D4FF30040BEF24BFB41A005003D5
:1000DE002461FFE50960021509050CE50C700205A7
:1000EE000B30070E90020DE475F0011206BEEF0202
:1000FE0005DE0217BD7403D2078003E4C207F508BC
:10010E0090020D1206D5E4F509F50BF50CE5096024
:10011E00077F201200E180F5750AFFC201C200C2FE
:10012E0002C203C205C206C2081200ADFF700D3036
:10013E0007057F001200F2AF0CAE0B22B4255FC292
:10014E00D5C2041200ADFF24D0B40A00501A75F0C7
:10015E000A780930D50508B6FF0106C6A426F62092
:10016E00D5047002D20380D924CFB41A00EF500404
:10017E00C2E5D2040202F3D20180C6D20080C0D200
:10018E000280BCD2D580BAD20580B47F201200E1A5
:10019E002002077401B5090040F112009EFF120003
:1001AE00E102011BD208D206809512009EFB1200BE
:1001BE009EFA12009EF94A4B700679C47A037BFFB1
:1001CE0020022EE509602A7E008E827583001205BC
:1001DE00B160060EEE650A70F0C2D5EBC0E0EAC063
:1001EE00E0E9C0E0EE12033AD0E0F9D0E0FAD0E058
:1001FE00FB1204F9FF60AAEBC0E0EAC0E0E9C0E040
:10020E001200E1D0E02401F9D0E03400FAD0E0FB96
:10021E00E50A0460DCD50AD980877BFF7A0379363C
:10022E00D202809C791080027908C206C20880082A
:10023E00D2D5790A8004790AC2D5E50A047002F58E
:10024E000AE4FAFDFEFF12009EFC7B082001131249
:10025E00009EFD7B1030000A12009EFE12009EFFD3
:10026E007B20EC3382D592D55013C3E43000069F29
:10027E00FFE49EFEE42001039DFDE49CFCE4CBF82C
:10028E00C201EC700CCFCECDCCE824F8F870F38020
:10029E0017C3EF33FFEE33FEED33FDEC33FCEB33E0
:1002AE00FB994002FB0FD8E9EB300105F8D0E0C412
:1002BE0048B201C0E00AEC4D4E4F78207B0070C270
:1002CE00EAB50A0040BCC0E012033CD0F0D0E020FA
:1002DE000104C4C0E0C4B201C0F01200CAD0F0D50F
:1002EE00F0EB02011B1206DE01B8530232580189EF
:1002FE004C01854202364F023E44023E49019E4366
:08030E000244550228460228B2
:100316004502284703E450018D2D01912E01B42B8F
:1003260001952301B22003CD2A014D48000001ACFE
:100336003F3F3F00790AA2D5200314300509B910C2
:10034600020404B9080104A2D520060250010420C3
:1003560002689202B509005034C0E07F20300319CC
:100366007F30A20272067205500F120393C202C2B8
:1003760006C205C2087F30800F300503E9C0E012CF
:1003860000E1300503D0E0F9D0E0B509CC3005171F
:100396007F30B9100C1200E17F583004077F788057
:1003A60003B908031200E13002057F2D0200E17F48
:1003B600202008F87F2B2006F322920280CF286E99
:1003C600756C6C2900D20112009E3001F8C20178CA
:1003D6000930D50108F602014D2D50434958120047
:1003E6009E2403B405004001E49003DF931200D27B
:0D03F600743A1200D2D203750904020232DB
:100F9D000213F4E493A3F8E493A34003F68001F263
:100FAD0008DFF48029E493A3F85407240CC8C33355
:100FBD00C4540F4420C8834004F456800146F6DF24
:100FCD00E4800B0102040810204080900B1DE47E8C
:100FDD00019360BCA3FF543F30E509541FFEE49319
:100FED00A360010ECF54C025E060A840B8E493A3E0
:100FFD00FAE493A3F8E493A3C8C582C8CAC583CA0B
:10100D00F0A3C8C582C8CAC583CADFE9DEE780BEC2
:010C3C0000B7
:1005B100BB010CE58229F582E5833AF583E02250FF
:1005C10006E92582F8E622BBFE06E92582F8E22249
:0D05D100E58229F582E5833AF583E4932263
:1005DE00BB010689828A83F0225002F722BBFE01FC
:0205EE00F322F6
:1005F00075F008758200EF2FFFEE33FECD33CDCCC2
:1006000033CCC58233C5829BED9AEC99E582984044
:100610000CF582EE9BFEED9AFDEC99FC0FD5F0D621
:10062000E4CEFBE4CDFAE4CCF9A88222B800C1B94B
:100630000059BA002DEC8BF084CFCECDFCE5F0CB89
:10064000F97818EF2FFFEE33FEED33FDEC33FCEBC2
:1006500033FB10D703994004EB99FB0FD8E5E4F97D
:10066000FA227818EF2FFFEE33FEED33FDEC33FC6A
:10067000C933C910D7059BE99A4007EC9BFCE99A5E
:10068000F90FD8E0E4C9FAE4CCFB2275F010EF2FA3
:10069000FFEE33FEED33FDCC33CCC833C810D707A3
:1006A0009BEC9AE899400AED9BFDEC9AFCE899F8DE
:0E06B0000FD5F0DAE4CDFBE4CCFAE4C8F92271
:1006BE00F8E0FBA3A3E0F925F0F0E58215827002C5
:0706CE001583E0FA38F02269
:0906D500EBF0A3EAF0A3E9F02226
:1006DE00D083D082F8E4937012740193700DA3A3AB
:1006EE0093F8740193F5828883E4737402936860BF
:0606FE00EFA3A3A380DFBF
:00000001FF
